:100000000C945A000C9464000C9464000C946400EA
:100010000C9464000C9464000C9464000C946400D0
:100020000C9464000C9464000C9464000C946400C0
:100030000C9464000C9464000C9464000C946400B0
:100040000C9464000C9464000C9464000C946400A0
:100050000C9464000C9464000C9464000C94640090
:100060000C9464000C9464000C9464000C94640080
:100070000C9464000C9464000C9464000C94640070
:100080000C9464000C9464000C9464000C94640060
:100090000C9464000C9464000C9464000C94640050
:1000A0000C9464000C9464000C9464000C94640040
:1000B0000C94640011241FBECFEFD8E0DEBFCDBF8B
:1000C0000E9466000C9480020C94000084B18E7F24
:1000D00084B984B18D7F84B984B18B7F84B984B1B4
:1000E000877F84B985B1816085B985B1826085B922
:1000F00085B1846085B985B1886085B98AB1886029
:100100008AB98AB180618AB98AB180628AB98AB1B2
:1001100080648AB98AB180688AB984B1806184B9FF
:1001200084B1806284B984B5826084BD85B5846001
:1001300085BD8BB1886F8BB963E070E026C08BB151
:1001400041E050E0062E02C0440F551F0A94E2F72A
:10015000942F909589238BB920E030E00EC083B1B5
:1001600090E0022E02C0959587950A94E2F780FDF3
:1001700002C06B0179012F5F3F4F243031057CF3C2
:100180008BB1482B4BB96F5F7F4F68307105BCF264
:10019000C60183309105C1F4C701009719F48DE8B9
:1001A00087BD5EC08130910519F485E887BD58C0D0
:1001B0008230910519F48EE787BD52C0039709F08C
:1001C0004FC086E787BD4CC084309105B9F4C701A4
:1001D000009719F480E787BD43C08130910519F479
:1001E00089E687BD3DC08230910519F483E687BD5D
:1001F00037C00397A9F58DE587BD32C085309105DD
:10020000B9F4C701009719F488E587BD29C081308A
:10021000910519F483E587BD23C08230910519F457
:100220008EE487BD1DC00397D9F48AE487BD18C04A
:100230000797B1F4C701009719F486E487BD10C091
:100240008130910519F482E487BD0AC0823091059E
:1002500019F48EE387BD04C0039711F48AE387BDC8
:1002600067B570E080E090E00E94870120E030E018
:1002700040E05FE30E94EB010E94560168BD85B13A
:100280008F7E85B985B18F7D85B9AA9BFECF85B359
:10029000846085BB85B1806185B985B1806285B98F
:1002A000A99BFECF85B3826085BB43CF0E94CA0164
:1002B00088F09F5798F0B92F9927B751B0F0E1F027
:1002C000660F771F881F991F1AF0BA95C9F714C0D7
:1002D000B13091F00E94E401B1E008950C94E40182
:1002E000672F782F8827B85F39F0B93FCCF3869510
:1002F00077956795B395D9F73EF49095809570956D
:1003000061957F4F8F4F9F4F0895E89409C097FBE9
:100310003EF490958095709561957F4F8F4F9F4FDC
:100320009923A9F0F92F96E9BB279395F695879520
:1003300077956795B795F111F8CFFAF4BB0F11F4E3
:1003400060FF1BC06F5F7F4F8F4F9F4F16C088238A
:1003500011F096E911C0772321F09EE8872F762FC0
:1003600005C0662371F096E8862F70E060E02AF001
:100370009A95660F771F881FDAF7880F96958795ED
:1003800097F9089557FD9058440F551F59F05F3F56
:1003900071F04795880F97FB991F61F09F3F79F0A7
:1003A00087950895121613061406551FF2CF469529
:1003B000F1DF08C0161617061806991FF1CF8695AB
:1003C0007105610508940895E894BB27662777278F
:1003D000CB0197F908950E94FE010C946F020E94D0
:1003E000610238F00E94680220F0952311F00C940D
:1003F00058020C945E0211240C94E5010E94C20183
:1004000070F3959FC1F3950F50E0551F629FF00167
:10041000729FBB27F00DB11D639FAA27F00DB11D80
:10042000AA1F649F6627B00DA11D661F829F222709
:10043000B00DA11D621F739FB00DA11D621F839F90
:10044000A00D611D221F749F3327A00D611D231F66
:10045000849F600D211D822F762F6A2F11249F57B4
:1004600050409AF0F1F088234AF0EE0FFF1FBB1FB7
:10047000661F771F881F91505040A9F79E3F510576
:1004800080F00C9458020C94E5015F3FE4F3983E31
:10049000D4F3869577956795B795F795E7959F5F20
:1004A000C1F7FE2B880F911D9695879597F90895B2
:1004B00097F99F6780E870E060E008959FEF80EC17
:1004C000089500240A9416161706180609060895BA
:1004D00000240A9412161306140605060895092E20
:1004E0000394000C11F4882352F0BB0F40F4BF2B8F
:1004F00011F460FF04C06F5F7F4F8F4F9F4F0895CF
:04050000F894FFCF9D
:00000001FF
