:100000000C945A000C946C000C946C000C946C00D2
:100010000C946C000C946C000C946C000C94BA0062
:100020000C94C9000C946C000C946C000C946C0043
:100030000C946C000C946C000C946C000C946C0090
:100040000C946C000C946C000C946C000C946C0080
:100050000C946C000C946E000C946C000C946C006E
:100060000C946C000C946C000C946C000C946C0060
:100070000C946C000C946C000C946C000C946C0050
:100080000C946C000C946C000C946C000C946C0040
:100090000C946C000C946C000C946C000C946C0030
:1000A0000C946C000C946C000C946C000C946C0020
:1000B0000C946C0011241FBECFEFD8E0DEBFCDBF83
:1000C00021E0A0E0B1E001C01D92A030B207E1F74D
:1000D0000E94D8000C943D020C9400001F920F92D5
:1000E0000FB60F921124CF92DF92EF92FF922F93CF
:1000F0003F934F935F936F937F938F939F93AF93B0
:10010000BF93CF93EF93FF93C091B30060917800BA
:100110007091790080E090E00E94420120E030E0A0
:1001200040E85AE30E94A8016B017C016C2F70E04B
:1001300080E090E00E944401A70196010E94A8017E
:100140000E9413016093B400FF91EF91CF91BF9192
:10015000AF919F918F917F916F915F914F913F915F
:100160002F91FF90EF90DF90CF900F900FBE0F90E8
:100170001F9018951F920F920FB60F9211248F9314
:1001800085B1806285B98F910F900FBE0F901F903F
:1001900018951F920F920FB60F9211248F9385B16D
:1001A0008F7D85B98F910F900FBE0F901F9018957E
:1001B00084B1806284B987B18E7F87B985B18F7D24
:1001C00085B984B5826084BD85B5856085BDEEE660
:1001D000F0E08081826080838CE787BD1092B4005C
:1001E000E0EBF0E0808182608083E1EBF0E08081F1
:1001F00084608083E0E7F0E080818660808385E32F
:100200008093B300ECE7F0E0808180648083EAE7CC
:10021000F0E080818B6A8083EBE7F0E0808183608F
:1002200080837894FFCF0E94870188F09F5798F0D1
:10023000B92F9927B751B0F0E1F0660F771F881FEB
:10024000991F1AF0BA95C9F714C0B13091F00E9405
:10025000A101B1E008950C94A101672F782F8827A0
:10026000B85F39F0B93FCCF3869577956795B3952C
:10027000D9F73EF490958095709561957F4F8F4F9B
:100280009F4F0895E89409C097FB3EF490958095A0
:10029000709561957F4F8F4F9F4F9923A9F0F92F4C
:1002A00096E9BB279395F695879577956795B795CA
:1002B000F111F8CFFAF4BB0F11F460FF1BC06F5FB0
:1002C0007F4F8F4F9F4F16C0882311F096E911C0C2
:1002D000772321F09EE8872F762F05C0662371F0E3
:1002E00096E8862F70E060E02AF09A95660F771FF7
:1002F000881FDAF7880F9695879597F9089557FD27
:100300009058440F551F59F05F3F71F04795880F83
:1003100097FB991F61F09F3F79F08795089512161A
:1003200013061406551FF2CF4695F1DF08C01616C6
:1003300017061806991FF1CF869571056105089477
:100340000895E894BB2766277727CB0197F908958E
:100350000E94BB010C942C020E941E0238F00E94E5
:10036000250220F0952311F00C9415020C941B0229
:1003700011240C94A2010E947F0170F3959FC1F398
:10038000950F50E0551F629FF001729FBB27F00D43
:10039000B11D639FAA27F00DB11DAA1F649F662798
:1003A000B00DA11D661F829F2227B00DA11D621FE7
:1003B000739FB00DA11D621F839FA00D611D221FA1
:1003C000749F3327A00D611D231F849F600D211D85
:1003D000822F762F6A2F11249F5750409AF0F1F008
:1003E00088234AF0EE0FFF1FBB1F661F771F881F71
:1003F00091505040A9F79E3F510580F00C94150292
:100400000C94A2015F3FE4F3983ED4F38695779570
:100410006795B795F795E7959F5FC1F7FE2B880F16
:10042000911D9695879597F9089597F99F6780E8AC
:1004300070E060E008959FEF80EC089500240A9436
:100440001616170618060906089500240A941216AF
:100450001306140605060895092E0394000C11F4E2
:10046000882352F0BB0F40F4BF2B11F460FF04C08F
:0E0470006F5F7F4F8F4F9F4F0895F894FFCF1F
:00000001FF
