S00D00004C41425F382E73726563B1
S11300000C945A000C9464000C9464000C946400E6
S11300100C9464000C9464000C9464000C946400CC
S11300200C9464000C9464000C9464000C946400BC
S11300300C9464000C9464000C9464000C946400AC
S11300400C9464000C9464000C9464000C9464009C
S11300500C9464000C9464000C9464000C9464008C
S11300600C9464000C9464000C9464000C9464007C
S11300700C9464000C9464000C9464000C9464006C
S11300800C9464000C9464000C9464000C9464005C
S11300900C9464000C9464000C9464000C9464004C
S11300A00C9464000C9464000C9464000C9464003C
S11300B00C94640011241FBECFEFD8E0DEBFCDBF87
S11300C00E94BC000C9410020C94000085B18F7D3A
S11300D085B9089585B1806285B9089584B1806237
S11300E084B985B18F7D85B90895CF92DF92EF925F
S11300F0FF9280E090E00E94FA0194B5926094BD72
S113010095B5946095BD9CE997BD682F70E080E03B
S113011090E00E9401012DEC3CEC4CEC5DE30E946C
S113012065016B017C0167B570E080E090E00E949E
S11301300101A70196010E9465010E94D00068BDDB
S1130140EEE6F0E0808186608083FF90EF90DF90A0
S1130150CF900895809100008A3010F48F5F089545
S11301608A3008F080E008950E94AA00682F80E099
S113017090E00E94020208950E946E000E947500A1
S11301800E94B4000E946A00AA9BFECF85B38460DB
S113019085BB0E946600A99BFECF85B385BBF2CFC9
S11301A00E94440188F09F5798F0B92F9927B751BE
S11301B0B0F0E1F0660F771F881F991F1AF0BA9507
S11301C0C9F714C0B13091F00E945E01B1E0089506
S11301D00C945E01672F782F8827B85F39F0B93FF8
S11301E0CCF3869577956795B395D9F73EF49095BA
S11301F08095709561957F4F8F4F9F4F0895E89438
S113020009C097FB3EF490958095709561957F4F5A
S11302108F4F9F4F9923A9F0F92F96E9BB27939508
S1130220F695879577956795B795F111F8CFFAF418
S1130230BB0F11F460FF1BC06F5F7F4F8F4F9F4F49
S113024016C0882311F096E911C0772321F09EE8A7
S1130250872F762F05C0662371F096E8862F70E00D
S113026060E02AF09A95660F771F881FDAF7880FE7
S11302709695879597F9089557FD9058440F551F03
S113028059F05F3F71F04795880F97FB991F61F014
S11302909F3F79F087950895121613061406551F8B
S11302A0F2CF4695F1DF08C0161617061806991FF7
S11302B0F1CF86957105610508940895E894BB27EC
S11302C066277727CB0197F908950E9478010C944B
S11302D0E9010E94DB0138F00E94E20120F095233D
S11302E011F00C94D2010C94D80111240C945F01E8
S11302F00E943C0170F3959FC1F3950F50E0551F88
S1130300629FF001729FBB27F00DB11D639FAA2766
S1130310F00DB11DAA1F649F6627B00DA11D661FB5
S1130320829F2227B00DA11D621F739FB00DA11DD6
S1130330621F839FA00D611D221F749F3327A00D90
S1130340611D231F849F600D211D822F762F6A2F2C
S113035011249F5750409AF0F1F088234AF0EE0F91
S1130360FF1FBB1F661F771F881F91505040A9F7BE
S11303709E3F510580F00C94D2010C945F015F3FC5
S1130380E4F3983ED4F3869577956795B795F795FA
S1130390E7959F5FC1F7FE2B880F911D9695879572
S11303A097F9089597F99F6780E870E060E00895F1
S11303B09FEF80EC089500240A9416161706180679
S11303C00906089500240A94121613061406050655
S11303D00895092E0394000C11F4882352F0BB0FE6
S11303E040F4BF2B11F460FF04C06F5F7F4F8F4F49
S11303F09F4F0895F999FECF92BD81BDF89A992730
S113040080B50895262FF999FECF1FBA92BD81BDFC
S113041020BD0FB6F894FA9AF99A0FBE0196089582
S1070420F894FFCF7A
S9030000FC
